:04000000FEEF7FF0A0
:10EAB400698412000001E86BFC8F12000001E86B0E
:10EAC400FC8D120001C56BF402506C6E120001C57E
:10EAD4004FF502C550F5120001C54DF502C54EF5BE
:10EAE400120001C54BF502C54CF5120001C558F5DD
:10EAF40002C559F5120001C55CF502C55DF51200A9
:10EB040001C55AF502C55BF512000A6E0A5044ECC1
:10EB140076F01200000E0D6E010E03EC78F0120078
:10EB2400000E0D6E020E03EC78F01200000E076E5C
:10EB3400010EABEC76F012000001E86B01C5F0F0B9
:10EB440002C5F1F012000C6E0CC507F5150EABEC06
:10EB540076F01200146E010E0D6E145003EC78F072
:10EB64001200550E0001B46FAA0EB46FB4811200E6
:10EB7400600E0001AD6FAF6BB36B080EB16FB06B7D
:10EB8400AC6B1200156E000E0D6E1550280DF3506F
:10EB94001424800903EC78F01200370E0301196F76
:10EBA400186BB00E1B6F000E566E000E576EB69E9D
:10EBB400800E1A6F120001500210D8B4E4EF75F001
:10EBC400E6EF75F0EAEF75F001C547F502C548F5C3
:10EBD400120001500210D8B4F2EF75F0F4EF75F0A2
:10EBE400F8EF75F001C545F502C546F51200015070
:10EBF4000210D8B400EF76F002EF76F006EF76F06C
:10EC040001C543F502C544F51200070E0001B56FB6
:10EC1400B66B070EB76F070EB86F070EB96F070E06
:10EC2400BE6F070EBF6FF46AF36AB46B1200000183
:10EC3400849FAB94AB92AB90400E856F866B896BCF
:10EC44008C6B826B836B876B886B8B6B8A6B878512
:10EC5400020E846F1200BAEC75F09CEC78F079EC3B
:10EC640077F019EC76F0CFEC75F007EC76F007EC62
:10EC740077F0A6EC77F0D4EC77F05DEC76F0B3ECBB
:10EC840075F01200076EC094086A07C509F5080EEE
:10EC9400016E050E026E000E046E020E036E50EC41
:10ECA40077F0000186BF59EF76F05BEF76F053EF13
:10ECB40076F0C0841200D69AB490D680000E016E0D
:10ECC400000E026E69EC75F0B990D682000E016EEA
:10ECD400000E026E6EEC75F0BD90D684000E016ECF
:10ECE400000E026E73EC75F012000F6E0DC50EF57A
:10ECF400D8900E36D8900E360F38F00B0E10106EDA
:10ED04001050A5EC75F010500809A5EC75F0050E2F
:10ED1400E82EFED700001050A5EC75F0120001EEAD
:10ED240066F113EE00F0EE6AE550E150FCE1E250CA
:10ED3400FAE10501656B646B636B626B616B606B1D
:10ED440001EE43F1130EEE6AE806FDE10001E4EF83
:10ED540076F0086EC09C400E096E08C50AF507C51A
:10ED64000BF5090E016E050E026E000E046E030E05
:10ED7400036E50EC77F0000186BFC3EF76F0C5EF69
:10ED840076F0BDEF76F0C08C120001C505F502C522
:10ED940006F503C5F6F404C5F7F4034A042AF86A31
:10EDA40005C5D9F406C5DAF4054A062A0800F5C4EF
:10EDB400DFF4DF50D8A4E1EF76F0E3EF76F0CBEFA9
:10EDC40076F012002DEC76F0000EA6EC79F090ECC3
:10EDD4007AF0280E87EC75F00FEC79F00F0E026EC6
:10EDE400660E016E9EEC75F05CEC75F060EC75F0EF
:10EDF400B5AAFFEF76F001EF77F0FAEF76F017ECB3
:10EE04007BF001EF77F0FEEF7FF00001E86BEB0E93
:10EE1400F96F030EFA6F000EFB6F030EF16FD90E3C
:10EE2400F06F600EFD6F000EF86F010EF76F020EAB
:10EE3400EF6F000EEE6F0A0EFF6F150EFE6FB59AA0
:10EE4400B598B59EB59CAA9AAA98AA9EAA9CFC6B52
:10EE54001200000E0A6E000E096E44EF77F009509E
:10EE64000324D96E0A500420DA6E09500124E16E9D
:10EE74000A500220E26EE750086E0550085CDF6E0F
:10EE8400094A0A2A0650095C07500A58D8A04DEFCF
:10EE940077F04FEF77F031EF77F0120001C505F509
:10EEA40002C506F5000187858A9D8651FE0B02097D
:10EEB400866F0450836F03C582F070EF77F005C549
:10EEC400D9F406C5DAF4DF50816FB6A26CEF77F09F
:10EED4006EEF77F067EF77F0054A062A00018AADF6
:10EEE40076EF77F078EF77F061EF77F012000301B7
:10EEF400F39F0A0ED96FDA6BDB6BDC6BDF6BE06BB5
:10EF0400E56BE76B0F0EEC6FEE6BEF6BD86BF06B92
:10EF1400F16BF26BF46B180EF56FF66BF76BF86B25
:10EF24001F0EFA6F020EF96F000E536E000E546E30
:10EF3400000E516E000E526E556AB494A994B590A9
:10EF4400AA90800EF36F1200606A050E616E626A09
:10EF5400630E636E646A040E656E666A676A686A45
:10EF64006A6A460E6B6E6C6A320E6D6E6E6AB79C80
:10EF7400B79E67906792AC9EAC9C000E016E000E2B
:10EF8400026E7DEC75F0000E016E000E026E82ECD6
:10EF940075F0000E016E000E026E78EC75F0800EB6
:10EFA400696E12000201A26BA46BA56BA66BA76B22
:10EFB400A86BA96BAA6BA00EAB6F800EAC6F080E8A
:10EFC400AD6F8A0EAE6FAF6B2E0EB06FB16B800E4D
:10EFD400B26FB36B000E016E000E026EDDEC75F0C5
:10EFE400000E016E000E026EEBEC75F0000E016E69
:10EFF400000E026EF9EC75F0000E4A6E000E496EBA
:10F004001200116E11380F0B0F6E11500F0B106E92
:10F014000DC50EF5D8900E36D8900E360F38F00B7D
:10F024000E10126E0DC50EF5D8900E36D8900E3611
:10F034001038F00B0E10136E1250A5EC75F0125030
:10F044000809A5EC75F0050EE82EFED70000135054
:10F05400A5EC75F0050EE82EFED700001350080944
:10F06400A5EC75F01200000E066E000E056E3DEF65
:10F0740078F0054A062A05500124D96E065002206C
:10F08400DA6EDF50D8A449EF78F04BEF78F03BEF1D
:10F0940078F051EF78F0054A062A034A042A03C59A
:10F0A400F6F404C5F7F4F86A05500124D96E065045
:10F0B4000220DA6E0800F5C4DFF4DF50D8A465EF4F
:10F0C40078F067EF78F04DEF78F01200000E146ED0
:10F0D4001950C4EC75F0C00E00D0E82EFDD71C6AA0
:10F0E40092EF78F01C5016241A6E000E17201B6E37
:10F0F4001AC5F6F41BC5F7F4000EF86E150EF76486
:10F1040003D00800F55005D0F6C4E9F4F7C4EAF4D6
:10F11400EF50ACEC75F0C00E00D0E82EFDD71C2AE1
:10F1240018501C5CD8A099EF78F09BEF78F074EF3E
:10F1340078F01200BE6ABF6AC06A0401026B0A6BEF
:10F14400126B2B0EC66EB00EC76E0B0EC86E230E5E
:10F15400006FA00E086F0B0E106F016B096B116B23
:10F16400370E036FF00E0B6F13693F0E046FF00E32
:10F174000C6F14690201876B866B0C0E6B6F100E9B
:10F18400156F1C0E186F0A0E166F1B0E0F6F0401FD
:10F19400056B066B076B0D6B0E6B0F6B156B166BAC
:10F1A400176B1200000E136E000E146E000E156E17
:10F1B400000E166E000E186E000E176EF2EF78F049
:10F1C40017500E24D96E18500F20DA6EDF50126ECD
:10F1D40012501326000E142215221622174A182A3A
:10F1E4001050175C11501858D8A0FBEF78F0FDEFC1
:10F1F40078F0E2EF78F013C501F514C502F515C5F2
:10F2040003F516C504F510C505F511C506F5076A1D
:10F21400086A54EC79F001501200000E026E460E9A
:10F22400016E64EC75F05AEC75F0A90E166EFF0EC3
:10F23400176E100E186E000E196E68EC78F0BA0E88
:10F24400166EFF0E176E100E186E010E196E68EC16
:10F2540078F0F40E1E6E820E1D6E050EE82EFED79B
:10F264001D2EFCD71E2EFAD7000092EC75F02A0E44
:10F274001D6E8E0EE82EFED71D2EFCD78CEC75F07D
:10F284002A0E1D6E8E0EE82EFED71D2EFCD7DB0E29
:10F29400166EFF0E176E0F0E186E000E196E68ECC8
:10F2A40078F01200000E096E000E0A6E000E0B6E4E
:10F2B400000E0C6E0550061007100810D8B465EF48
:10F2C40079F067EF79F09DEF79F0010E0D6E71EF33
:10F2D40079F0D89005360636073608360D2A08AE7A
:10F2E40076EF79F078EF79F06BEF79F0D890093612
:10F2F4000A360B360C360550015C0650025807508E
:10F30400035808500458D8A08AEF79F08CEF79F0AC
:10F3140095EF79F00550015E0650025A0750035AE2
:10F324000850045A0980D890083207320632053250
:10F334000D2E78EF79F009C501F50AC502F50BC564
:10F3440003F50CC504F51200016E000184BFADEF96
:10F3540079F0AFEF79F00AEF7AF00150050D9F0EC6
:10F36400F324F66EF90EF420F76EF86A000EF82214
:10F374000800F5C484F00150050D010EF326000EBB
:10F38400F4229F0EF324F66EF90EF420F76EF86A59
:10F39400000EF8220800F5C485F00150050D020E98
:10F3A400F326000EF4229F0EF324F66EF90EF420D9
:10F3B400F76EF86A000EF8220800F550FC0B866F11
:10F3C4000150050D030EF326000EF4229F0EF324C4
:10F3D400F66EF90EF420F76EF86A000EF8220800B3
:10F3E400F5C489F00150050D040EF326000EF42235
:10F3F4009F0EF324F66EF90EF420F76EF86A000EF1
:10F40400F8220800F5C48CF0C896848F0AEF7AF0CD
:10F414001200000E1A6E000E196E84EF7AF0000EC0
:10F42400136E000E146E000E156E000E166E000E96
:10F43400186E000E176E5BEF7AF017500124076EFA
:10F4440018500220086E19500724D96E1A5008204B
:10F45400DA6EDF50096E0A6A09BE0A0617500124E3
:10F46400D96E18500220DA6EDF500B6E0C6A0BBE98
:10F474000C0609500B02F3C40DF5F4C40EF50C028E
:10F48400F3500E260A500B02F3500E260DC50FF54D
:10F494000EC510F5000E10BEFF0E116E126E0F5049
:10F4A4001326105014221150152212501622174AF6
:10F4B400182A000E076E020E086E1950075E1A50C5
:10F4C400085A0750175C08501858D8A06CEF7AF007
:10F4D4006EEF7AF01FEF7AF0D8901934D96E1A349F
:10F4E400DA6ED890D936DA360350D9260450DA22A7
:10F4F40013C5DEF414C5DEF415C5DEF416C5DEF45A
:10F50400194A1A2A0550195C06501A58D8A08DEFCA
:10F514007AF08FEF7AF011EF7AF01200C08CC08489
:10F52400BE8898EC75F0000EA5EC75F0040E156E0F
:10F53400400E146E260EE82EFED7142EFCD7152E80
:10F54400FAD700D0000E0D6E030E77EC76F0680E3D
:10F55400146EE40EE82EFED7142EFCD700D0000E55
:10F564000D6E030E77EC76F0E40E00D000D0E82E9A
:10F57400FCD700D000D0000E0D6E030E77EC76F0B1
:10F58400D00E146ECA0EE82EFED7142EFCD7000E31
:10F594000D6E020E77EC76F0000E0D6E2C0E03EC61
:10F5A40078F0680E146EE40EE82EFED7142EFCD705
:10F5B40000D0000E0D6E0C0E03EC78F0680E146E85
:10F5C400E40EE82EFED7142EFCD700D0000E0D6EEC
:10F5D400060E03EC78F0680E146EE40EE82EFED7E7
:10F5E400142EFCD700D0000E0D6E0C0E03EC78F038
:10F5F400680E146EE40EE82EFED7142EFCD700D04D
:10F6040092EC75F0680E146EE40EE82EFED7142EFC
:10F61400FCD700D08CEC75F0680E146EE40EE82E66
:10F62400FED7142EFCD700D01200660E0E6E0F0EFD
:10F634000F6E020E116E000E106ED4EC78F0406E58
:10F64400660E016E0F0E026E660E036E0D0E046ED4
:10F6540040C505F5020E076E000E066E2BEC77F022
:10F6640060EC75F0660E016E0D0E026E660E036E92
:10F67400050E046E000E066E800E056E0BEC7AF01D
:10F68400660E016E050E026E000E046E800E036E91
:10F69400D00E056E070E066E000E076E000E086E85
:10F6A400DEEC7BF001C541F502C542F54150421044
:10F6B400D8A45FEF7BF061EF7BF077EF7BF0DB0E9C
:10F6C400166EFF0E176E0F0E186E000E196E68EC94
:10F6D40078F0CB0E166EFF0E176E0F0E186E010E1D
:10F6E400196E68EC78F0DDEF7BF0200E016E050EEC
:10F6F400026EEB0E036EFF0E046EC7EC76F0200E66
:10F70400016E050E026E030E4102F3C41EF5F4C42D
:10F714001FF54202F3501F26290E1E24036EFE0E0F
:10F724001F20046E35EC78F0200E016E050E026E7B
:10F73400D30E036EFF0E046E35EC78F0300E016EBE
:10F74400050E026EF70E036EFF0E046EC7EC76F024
:10F75400300E016E050E026E090E4102F3C41EF551
:10F76400F4C41FF54202F3501F26A90E1E24036E93
:10F77400F90E1F20046E35EC78F0300E016E050E84
:10F78400026EF20E036EFF0E046E35EC78F0200E5E
:10F79400166E050E176E0F0E186E000E196E68ECBD
:10F7A40078F0300E166E050E176E0F0E186E010EE1
:10F7B400196E68EC78F01200000E176E000E166ECB
:10F7C400000E186E000E196E000E1A6E000E1B6EDF
:10F7D400000E1D6E010E1C6E93EF7CF0D8901C344D
:10F7E400D96E1D34DA6ED890D936DA360150D9265E
:10F7F4000250DA221CC50DF51DC50EF5D8900D3644
:10F804000E36D8900D360E360D5001240F6E0E5064
:10F814000220106EFC0E0F24E16EFF0E1020E26E2B
:10F82400DE50E65CDE50E658DE50E658E650800ACC
:10F83400156EDE50800A1558D8B023EF7CF025EF02
:10F844007CF091EF7CF0D8901C34D96E1D34DA6EC4
:10F85400D890D936DA360150D9260250DA221CC59E
:10F864000DF51DC50EF5D8900D360E36D8900D3613
:10F874000E360D5001240F6E0E500220106E040E31
:10F884000F24E16E000E1020E26EDE50E65CDE50C6
:10F89400E658DE50E658E650800A156EDE50800ABF
:10F8A4001558D8B058EF7CF05AEF7CF091EF7CF00B
:10F8B400D8901C34D96E1D34DA6ED890D936DA3625
:10F8C4000150D9260250DA22DE50185CDE50195855
:10F8D400DE501A581B50800A0D6EDE50800A0D58F7
:10F8E400D8B077EF7CF079EF7CF091EF7CF01CC519
:10F8F40016F51DC517F5D8901C34D96E1D34DA6E73
:10F90400D890D936DA360150D9260250DA22DEC42C
:10F9140018F5DEC419F5DEC41AF5DEC41BF51C4A5D
:10F924001D2AFF0E0324096EFF0E04200A6E0950DF
:10F934001C5C0A501D58D8A0A2EF7CF0A4EF7CF008
:10F94400F0EF7BF00550185C0650195807501A5810
:10F954001B50800A096E0850800A0958D8B0B5EFC8
:10F964007CF0B7EF7CF0BBEF7CF0000E176E000E5E
:10F97400166E16C501F517C502F512000032EC002B
:10F98400004CF30000000000000000A0EE000000A6
:10F994000000000000000000000000024000FF0022
:10F9A4000240000000302E30302020202000383962
:10F9B40032382E35372000343436342E3239200094
:10F9C400323937362E31392000323233322E313447
:10F9D4002000313738352E37312000313438382E75
:10F9E40031302000313237352E353120003131317C
:10F9F400362E303720003939322E30362020003868
:10FA040039322E38362020003831312E3639202034
:10FA1400003734342E30352020003638362E383135
:10FA24002020003633372E37362020003539352E46
:10FA340032342020003535382E3034202000353241
:10FA4400352E32312020003439362E303320200038
:10FA54003436392E39322020003434362E343320D3
:10FA640020003432352E31372020003430352E3802
:10FA7400342020003338382E3230202000333732FF
:10FA84002E30322020003335372E313420200033FD
:10FA940034332E34312020003333302E36392020B5
:10FAA400003331382E38382020003330372E3838A0
:10FAB4002020003239372E36322020003238382EBA
:10FAC40030322020003237392E30322020003237B5
:10FAD400302E35362020003236322E3631202000AA
:10FAE4003235352E31302020003234382E30322059
:10FAF40020003234312E33312020003233342E3979
:10FB0400362020003232382E39342020003232336D
:10FB14002E32312020003231372E37372020003268
:10FB240031322E35392020003230372E3634202021
:10FB3400003230322E39322020003139382E34311F
:10FB44002020003139342E31302020003138392E34
:10FB540039372020003138362E303120200031381A
:10FB6400322E32322020003137382E353720200013
:10FB74003137352E30372020003137312E373020C1
:10FB840020003136382E34362020003136352E33DD
:10FB9400342020003136322E3334202000313539E0
:10FBA4002E34342020003135362E363420200031D6
:10FBB40035332E39342020003135312E3333202093
:10FBC400003134382E38312020003134362E33378A
:10FBD4002020003134342E30312020003134312EB5
:10FBE40037322020003133392E3531202000313393
:10FBF400372E33362020003133352E323820200082
:10FC04003133332E32362020003133312E3330203D
:10FC140020003132392E34302020003132372E3555
:10FC2400352020003132352E373520200031323452
:10FC34002E30312020003132322E33312020003159
:10FC440032302E36362020003131392E3035202006
:10FC5400003131372E34382020003131352E3936F9
:10FC64002020003131342E34372020003131332E1E
:10FC740030322020003131312E3631202000313114
:10FC8400302E32332020003130382E3839202000F5
:10FC94003130372E35372020003130362E3239209E
:10FCA40020003130352E30342020003130332E38CE
:10FCB400322020003130322E3633202000313031D2
:10FCC4002E34362020003130302E333220200039BB
:10FCD400392E32312020200039382E313220202094
:10FCE4000039372E30352020200039362E3031208F
:10FCF40020200039342E39382020200039332E3981
:10FD0400382020200039332E303120202000393291
:10FD14002E30352020200039312E31312020200092
:10FD240039302E31392020200038392E3239202024
:10FD3400200038382E34302020200038372E353437
:10FD44002020200038362E36392020200038352E49
:10FD540038352020200038352E303320202000383C
:10FD6400342E32332020200038332E343420202007
:10FD74000038322E36372020200038312E393120F9
:10FD840020200038312E31372020200038302E3406
:10FD9400342020200037392E3732202020003739F4
:10FDA4002E30312020200037382E333220202000FE
:10FDB40037372E36342020200037362E393720208E
:10FDC400200037362E33312020200037352E3637A9
:10FDD4002020200037352E30332020200037342EC9
:10FDE40034302020200037332E37392020200037AC
:10FDF400332E31392020200037322E35392020206F
:10FE04000037322E30302020200037312E3433207A
:10FE140020200037302E38362020200037302E3373
:10FE240030202020002020004323004323004623C9
:10FE340000432300412000462300442300432300C1
:10FE4400422000412000472300462300462000446E
:10FE54002300442000432300432000422000412388
:10FE64000041200047230047230047200046230089
:10FE7400462000462000452000442300442300443B
:10FE84002000442000432300432300432000432058
:10FE94000042200042200041230041230041200071
:10FEA4004120004723004723004723004720004701
:10FEB4002000462300462300462300462000462017
:10FEC4000046200045200045200045200044230032
:10FED40044230044230044230044200044200044DD
:10FEE40020004323004323004323004323004320F3
:10FEF4000043200043200043200042200042200011
:10FF040042200042200041230041230041230041BC
:10FF140023004120004120004120004120004120D5
:10FF240000472300472300472300472300472300BB
:10FF34004720004720004720004720004720004674
:10FF4400230046230046230046230046230046237D
:10FF5400004620004620004620004620004620009F
:10FF6400462000452000452000452000452000454E
:10FF7400200045200044230044230044230044235C
:10FF84000044230044230044230044200044200070
:10FF94004420004420004420004420004420004326
:10FFA4002300432300202050494331384631365141
:10FFB4003430202020002020477569746172205459
:10FFC400756E657220200020202020202020202013
:10FFD40020202020202000506C617920612073743F
:10FFE40072696E672120004E6F74653A2000487A6A
:0CFFF400202000663D20000091EF76F018
:020000040030CA
:090000008C7F37FF9FFFFFFFFF1B
:00000001FF
